:100000000C942B020C9448020C9448020C94480265
:100010000C9448020C9448020C9448020C94480238
:100020000C9448020C9448020C94A5020C944802CB
:100030000C9448020C9448020C9467020C944802F9
:100040000C9448020C9448020C9448020C94480208
:100050000C9448020C9448020C9448020C944802F8
:100060000C9448020C9448020C9448020C944802E8
:100070000C9448020C943A040C9448020C944802E4
:100080000C9448020C9448020C9448020C944802C8
:100090001008181E01000000000000000000000A07
:1000A00000FFFFFFFFFFFFFFFFFFFF0A0000007FD1
:1000B0007F7F7F7F7F7F7F100000008A8A84848417
:1000C0008484841000000094948989898989891026
:1000D0000002009D9D8E8E8E8E8E8E10001100A5CA
:1000E000A592929292929210004500ABAB95959595
:1000F0009595951000A200B0B09797979797971095
:1001000000F200B2B29898989898981000F200B255
:10011000B29898989898981000A200B0B0979797C6
:1001200097979710004500ABAB95959595959510D1
:10013000001100A5A5929292929292100002009D49
:100140009D8E8E8E8E8E8E100000009494898989EB
:10015000898989100000008A8A84848484848410B8
:100160000000007F7F7F7F7F7F7F7F100000007413
:10017000747A7A7A7A7A7A100000006A6A757575EC
:10018000757575100000026161707070707070108C
:1001900000001159596C6C6C6C6C6C10000045536C
:1001A00053696969696969100000A24E4E67676703
:1001B000676767100000F24C4C66666666666610FC
:1001C0000000F24C4C666666666666100000A24E41
:1001D0004E67676767676710000045535369696931
:1001E0006969691000001159596C6C6C6C6C6C1069
:1001F0000000026161707070707070100000006A21
:100200006A7575757575751000000074747A7A7A60
:100210007A7A7A10000000E0DE59FE5D6DBE980F1C
:10022000004100F7B794F81DA58B5D0F007F00FE1D
:1002300083C5E100D14F1D0F00B400F446E8BA00B9
:10024000F00E000F00DC00D904FB8700FE00000F59
:1002500000F600AF00FD4A00FA00000F00FF007931
:1002600000EE0900E600000F00F6003B00CF0000A2
:10027000C200000F00DC000000A100009000000F91
:1002800000B40000006900005500000F007F00006E
:10029000002900001400000F0041000000000000D1
:1002A0000000000F00000000000000000000000F30
:1002B00000004100000000000000000F00007F006F
:1002C000000000250000000F0000B40000000065E1
:1002D0000000250F0000DC000000009E0034650FC8
:1002E0000000F6003D0000CC00739E0F0000FF00F0
:1002F0007B0000ED00AACC0F0000F600B10039FD34
:1003000000D5ED0F0000DC06DA0077FC00F2FD0FEF
:100310000000B448F500ADE900FEFC0F00007F8549
:10032000FE00D8C700F9EA0F000041B8F719F397AB
:100330002DE3C70F00000000000000000000001EB9
:1003400000616161616161616161611E00B4B4B4A9
:10035000B4B4B4B4B4B4B41E00EBEBEBEBEBEBEB26
:10036000EBEBEB1E00FFFFFFFFFFFFFFFFFFFF1E9A
:1003700000EBEBEBEBEBEBEBEBEBEB1E00B4B4B415
:10038000B4B4B4B4B4B4B41E0061616161616161BC
:100390006161611E000000A6A60000007FEFB40F9F
:1003A000000202F8F800000021FEEB0F002D2D588E
:1003B0005800000000E7FF0F00ABAB060600004C42
:1003C00000ACEB0F00FFFFA6A60000A30057B40F80
:1003D00000ABABF8F80061E20000610F002D2D5872
:1003E0005800B4FE0000000F000202060621EBF3E5
:1003F0000000000F000000A6A67FFFC30000000F52
:10040000000000F8F8CAEB750000000F000000586B
:1004100058F6B4164100000F0000000606FC61000B
:100420009B00000F000000A6A6DC0000DC00000F0F
:10043000000000F8F89B0000FC0B000F00000058C3
:1004400058410000F66B000F000000060600000097
:10045000CABC610F000011241FBECFEFCDBFDFE784
:10046000DEBF18E7A0E0B8E7E1E3FAE002C00590DC
:100470000D92A031B107D9F728E7A0E1B8E701C094
:100480001D92AA31B207E1F70E94CF040C94160521
:100490000C9400008091480481FF16C08091107870
:1004A000811108C0109211781092127881E0809327
:1004B0001078089580911178909112780196809328
:1004C000117890931278F2CF1092107808951F92BD
:1004D0000F920FB60F9211242F933F934F935F9378
:1004E0006F937F938F939F93AF93BF93EF93FF93FC
:1004F0000E944A0280EC809305040E94400481150A
:1005000031F080910178909102780E946603809189
:10051000137880958093137882E080930B0A809300
:100520000A0A81E08093060BFF91EF91BF91AF9192
:100530009F918F917F916F915F914F913F912F91FB
:100540000F900FBE0F901F9018951F920F920FB62D
:100550000F9211242F933F934F935F936F937F9349
:100560008F939F93AF93BF93EF93FF9380911378F3
:10057000811509F180E480930604609113788091DD
:100580000178909102780E94B40382E080930B0A74
:1005900010920A0AFF91EF91BF91AF919F918F91B5
:1005A0007F916F915F914F913F912F910F900FBE6F
:1005B0000F901F90189580E8DECF0E944F030E9495
:1005C0001A040E94EC030E942C04E0E5F0E0808114
:1005D000897F846080838081816080838895808129
:1005E0008E7F80830E9433040E94F2030E94E00306
:1005F0000C94110388ED90E084BF9093600080918B
:100600006500982F917080FDFACF88ED84BF90939C
:100610006800089570910078789FC0011124892F97
:1006200008951092E70581E08093030A97E790937D
:10063000010A92E090930A0A9FEF9093270A909301
:10064000260A1092280A1092290A8093000A84E050
:100650008093E9051092810B88ED20EC30E084BF97
:100660002093920B8FEF90E08093A80B9093A90BAF
:100670008093AC0B9093AD0B8093AA0B9093AB0B34
:100680008093AE0B9093AF0B82E88093820B8091A6
:100690008E0B80FFFCCF81E68093800B0895109233
:1006A000010A8091000A81708093000A80918E0B6C
:1006B00080FFFCCF8091800B8E7F8093800B88ED34
:1006C00020EC30E084BF2093920B0895AC01809120
:1006D00000789A012B5F3F4FF9012491829F90018E
:1006E00011243093280A9A012A5F3F4FF90124917F
:1006F000829F9001112430932A0A9A01285F3F4F6C
:10070000F9012491829F9001112430932C0A9A01BF
:100710002C5F3F4FF9012491829F90011124309367
:10072000290A90918E0B91FFFCCFFA012591829FAF
:1007300090011124232F33274FEF50E0BA01621BA1
:10074000730B6093A80B7093A90B9491899FC001C0
:100750001124892F9927481B590B4093AC0B5093B8
:10076000AD0B1092AF0B0895AC01809100789A0107
:10077000611589F02D5F3F4FF9012491829F90010F
:10078000112430932B0A31979491899FC001112431
:1007900090932D0A0895275F3F4FF9012491829F7E
:1007A0009001112430932B0A3297EECF809100787C
:1007B000893020F086958093007808958FEFFBCFE5
:1007C000E0E0FBE080E090E184879587118281E0A2
:1007D000858385E080830895E0E0FBE080818E7F63
:1007E00080830895CF93DF93E0E0F4E01082A0E4EB
:1007F000B4E01C92C0E6D4E0188284E083878B8743
:100800008FEF86878E878FE3818380EC818380E3FF
:10081000898382E012968C93129798E81B969C939A
:100820001B971C968C9380E4858380E88683DF91F8
:10083000CF910895A0E0B4E01C9210924004E0E64D
:10084000F4E0108284E01B968C931B9783878FEFD4
:100850001D968C9385870895E0E4F4E08AE8838709
:1008600082E084870895E0E4F4E088E8838782E00A
:10087000848708958F9382E0809349048F9118951F
:100880008091167890911778E0910178F091027834
:100890003A96259134918217930758F11092167861
:1008A00010921778809115788F5F80931578E0917A
:1008B0001478F0E0E057FF4F9491891710F01092F0
:1008C0001578F894E0911478F0E0EE0FFF1FED5FDB
:1008D000F74820911578808191813CE0239F800D1D
:1008E000911D11248093017890930278789481E08F
:1008F00008950196809316789093177880E0089574
:10090000F894809114788F5F843008F080E08093B1
:1009100014781092157810921678109217787894AF
:100920000895F89484E080931478109215781092CA
:1009300016781092177878940895F89485E080934B
:10094000147810921578109216781092177878947F
:1009500008958091187890911978009719F001976F
:1009600019F008950C9480040C94D60380911878A3
:1009700090911978009719F0019751F008950E940D
:10098000910481E090E0809318789093197808950D
:100990000E948004109218781092197808950E948D
:1009A000FA020E94F2030E9411030E94E00378946D
:1009B000F894809111789091127820911078789421
:1009C00021111CC085319105B0F08C3221E09207D5
:1009D00048F40E94A904F8941092117810921278A9
:1009E000789413C08C3B924018F40E94B604F3CF65
:1009F0000E94DD02F0CF892B41F0EDCF213029F4A8
:100A00008C3B924011F40E949D0480915000897F9C
:100A100080935000809150008160809350008895B1
:100A2000809150008E7F80935000C2CFF894FFCF0A
:100A3100409503950335031502AD00A10095000013
:00000001FF
